:020000040800F2
:1400000000000220010200086D4A000825070008854A0008F5
:140014009D4A0008B54A0008000000000000000000000000E2
:1400280000000000554A0008CD4A000800000000E54A0008C7
:14003C008D08000849070008490700084907000849070008B3
:14005000490700084907000865220008B5220008052300084E
:1400640055230008A523000849070008490700084907000830
:140078004907000849070008490700084907000849070008BC
:14008C0049070008490700084907000849070008F5230008E0
:1400A000490700088928000849070008490700084907000833
:1400B400490700084907000811200008490700082B200008A4
:1400C8004907000849070008490700085D33000895330008B4
:1400DC00CD330008C92400084907000849070008490700080B
:1400F000490700084907000849070008490700084907000844
:14010400490700084907000849070008053400083D34000825
:1401180049070008490700084907000849070008490700081B
:14012C00490700084907000849070008490700084907000807
:140140004907000849070008490700084907000849070008F3
:1401540049070008490700087534000839200008490700087D
:140168004907000849070008490700084907000849070008CB
:14017C00490700084907000849070008AD340008E53400085D
:14020000EB460A490A4A002001E00880891C9142FBDB0849EA
:14021400084A094B03E00888891C18809B1C9142F9DB00F032
:14022800EDF9FEE7D8070020580A0020FC630008D46B0008C8
:14023C00000000202DE91048EB4604460248A1B205F010FA09
:14025000BDE810883B6000082DE91048EB4604460248A1B234
:1402640005F004FABDE810882A6000082DE91048EB460446DB
:140278000248A1B205F0F8F9BDE810881D6000082DE91048BF
:14028C00EB4604460248A1B205F0ECF9BDE810880C600008BB
:1402A0002DE91048EB4604460248214605F0E0F9BDE81088A5
:1402B400F85F00082DE91048EB4604460248A1B205F0D4F98F
:1402C800BDE81088E25F00082DE91048EB4604460248A1B216
:1402DC0005F0C8F9BDE81088BE5F00082DE91048EB4604460D
:1402F0000248A1B205F0BCF9BDE81088A45F00082DE91048FD
:14030400EB4604460248214605F0B0F9BDE81088905F0008E7
:140318002DE91048EB4604460248214605F0A4F9BDE8108868
:14032C007B5F00082DE91048EB4604460248214605F098F9BB
:14034000BDE81088645F00082DE91048EB4604460248214607
:1403540005F08CF9BDE810884D5F00082DE91048EB46044641
:140368000248214605F080F9BDE81088385F00082DE93048F8
:14037C00EB4605460C460348A9B2A2B205F072F9BDE83088E8
:14039000225F00082DE93048EB4605460C460348A9B2A2B27A
:1403A40005F064F9BDE830880C5F00082DE93048EB46054619
:1403B8000C460348A9B2A2B205F056F9BDE83088F65E0008E8
:1403CC002DE93048EB4605460C460348A9B2A2B205F048F991
:1403E000BDE83088E05E00082DE91048EB4604460248A1B2E0
:1403F40005F03CF9BDE81088C65E00082DE91048EB46044679
:140408000248A1B205F030F9BDE81088A35E00082DE9F04F8A
:14041C00ADF1040B85B06420032103F07DF803F0C7F8ABF885
:140430000200614803F097F800242046214601225C4B03F0DD
:1404440072F90646594903F06DFD3046062103F023FD01201D
:1404580000211E22534B03F0CDF90546B4B2641C2046ACB2E3
:14046C00641C2146002203F01FF9022003F025FF00200121ED
:14048000494A03F082FF0546002420462146454A03F07BFF29
:14049400054620462146414A3F4B03F057FA8246354903F0AA
:1404A8003FFD5046082103F0F5FC20462146384A364B03F09E
:1404BC0049FA81462B4903F031FD4846082103F0E7FC0120DF
:1404D00003F0F9FE0124204621462D4A03F00DFB0646B4B218
:1404E400641C2046284903F039FD002420462146244A03F032
:1404F80048FF804620462146204A1F4B03F024FA07461C497F
:14050C0003F00CFD3846082103F0C2FC20462146164A154BFA
:1405200003F016FA0646124903F0FEFC3046082103F0B4FCEE
:14053400002029461FFA8AF21FFA89F31FFA88F40094BCB263
:140548000194B4B202940024039403F07FF8032003F0B5FE20
:12055C00BBF8020003F0C1FE02F0F4FF05B0BDE8F08F68
:14057000565E0008CD0300082F5E0008625E0008B1030008CA
:14058400345E00083A5E0008435E00080000000095030008E0
:140598005D5E000879030008685E00086E5E0008785E000888
:1405AC00890200088D5E000841020008935E00082DE93048E3
:1205C000EB46054805F054F80124024D2C60BDE830880D
:1405D400D8070020205E00082DE93048EB46074805F044F84F
:1405E8000124044D2C700024014D2C60BDE83088D807002093
:1405FC00540A00200E5E000800B500F02DF802F087FF04466D
:140610001348214605F02CF810480F4904F086F8002513E0C1
:140624000B4C2478042C01D104F05AF9074C2468A542F5D0FB
:14063800054C246824B1032000F0D0F9FFF7E8FE014C25686A
:14064C00F0E700BDD8070020540A0020DD050008BD050008D5
:14066000F95D00082DE93048EB4683B019481021002200235F
:14067400542400940524019400F096FA1748022100F01AF9A3
:140688001348144C2146022207252B46009403240194029594
:14069C0002F064FC0D484FF41651082201230024009402F001
:1406B00001FE084800F0A8FB04460548034DB4FBF5F104F0E4
:1406C400D5FF03B0BDE8308840420F00BC5D0008300000203C
:1406D800B407002028020020DC0700202DE93048EB460546DC
:1406EC00ECB20A2C03D105480D2102F0F0FC0348E9B202F021
:14070000ECFCE8B2BDE83088B40700202DE91048EB46034841
:0A07140002F040FD0446BDE8108825
:14072000B40700204FF000011EF0040F04D1EFF3088C6FF0DF
:14073400000101E0EFF3098CDCF81800DCF81C2004F0DAB9D5
:020748007047F8
:14074C0040B542B2002A09DA42B202F00F02121F074B0E011A
:1407600006F0FF06D65405E042B2034B0E0106F0FF06D65405
:0207740040BD86
:1407780000E400E018ED00E02DE97048EB4601FB03F4DBF8FF
:14078C0014C00CFA04F4056825EA040601FB03F4DBF814C067
:1407A00002EA0C0505FA04F426430660BDE8708840B542B2FC
:1407B400002A09DA42B202F00F02121F074B0E0106F0FF06A0
:1207C800D65405E042B2034B0E0106F0FF06D65440BD9D
:1407DC0000E400E018ED00E030B57FF07F41421E8A4201D946
:1407F00001201FE0411E144A11600F244FF0FF3569B20029BD
:1408040009DA69B201F00F01091F0D4A230103F0FF038B546A
:1408180005E069B2084A230103F0FF038B540021044A1160A2
:0A082C000721024A1160002030BDD0
:1408380010E000E018E000E000E400E018ED00E014E000E087
:14084C002DE97048EB4601FB03F4DBF814C00CFA04F4056894
:1408600025EA040601FB03F4DBF814C002EA0C0505FA04F4DD
:1408740026430660BDE8708800B50248022100F01BF800BD22
:14088800DC0700202DE97048EB46094C074D2D682668751900
:12089C002560044C246814B1024C2468A047BDE87088C6
:1408B000E0070020E4070020E80700202DE9F348EB460F463C
:1408C400FCB2002C01DB032C00DD02270D4CFDB2AD002C59FB
:1408D8000A4D2C60084800F093FA0446054DFEB2B60075598C
:0E08EC00B4FBF5F0FFF778FF02B0BDE8F0882E
:1408FC000000002030000020E4070020100000202DE943489C
:14091000EB4629B1074A136843F00103136006E0044A7FF0AF
:140924000103166806EA0303136002B0BDE8408810E000E0E5
:140938002DE90148EB460249086801B0BDE8008818E000E0AA
:14094C002DE90148EB460249086801B0BDE80088E80700205F
:140960002DE90348EB46024A116002B0BDE80088E00700204E
:1409740010B505490C680121484303490968091B8142FAD3CA
:0209880010BDA0
:14098C00E807002010B505490C680A21484303490968091B2A
:0609A0008142FAD310BDF4
:1409A800E807002010B505490C686421484303490968091BB4
:0609BC008142FAD310BDD8
:1409C400E807002010B505490C684FF47A7148430249096814
:1409D800091B8142FAD310BDE807002010B505490C6842F2C0
:1409EC001071484302490968091B8142FAD310BDE80700209F
:140A000010B505490C680549484303490968091B8142FAD311
:020A140010BD13
:140A1800E8070020A08601008068704710B5416802688A4251
:140A2C0003D1816809B9012400E00024204610BD41680268C8
:140A40008A4205D24168C268511A026850180CE041680268F0
:140A54008A4203D941680268501A04E0816809B1C06800E0DA
:140A6800002070470161C26070472DE9F048EB4606460F4648
:140A7C003046FFF7CFFF10B17FF000000FE034683569675517
:140A9000F1683468601C04F015FD306074683568A54201D119
:140AA4000124B4600020BDE8F0882DE9F048EB46074638467E
:140AB800FFF7B4FF10B17FF000000CE03C697D682E5D3C1DF7
:140ACC00F9682568681C04F0F7FC20600024BC60F0B2BDE8B6
:140AE000F0882DE9F048EB4607463846FFF79AFF10B17FF081
:140AF40000000BE03C693D682E5DF9683C68601E04F0DEFCDD
:140B080038600024BC60F0B2BDE8F08830B50568002D01DBE7
:140B1C008D4201DD002010E0002400E0641C0122A2409542A8
:140B300001D09542F8DC0122A240954201D0002001E0046023
:140B4400012030BD40B542B2002A09DA42B202F00F02121F71
:140B5800074B0E0106F0FF06D65405E042B2034B0E0106F0D7
:060B6C00FF06D65440BD57
:140B740000E400E018ED00E02DE97048EB4601FB03F4DBF8FF
:140B880014C00CFA04F4056825EA040601FB03F4DBF814C067
:140B9C0002EA0C0505FA04F426430660BDE870882DE9FF4F81
:140BB000ADF10C0B84B0884617469946DBF844A0DBF80CC0E8
:140BC400DCF80030CBF80830B8F1000F01D05FF0100800240A
:140BD800854D2C60854C894D266806EA05052560824C7FF4B6
:140BEC008025266806EA05052560824C7F4D2C6000247F4D2D
:140C00002C607C4C256845F0010525600AF00F0ABAF1000F72
:140C14000AD0754C256845EA0A052560724C246804F00F0490
:140C28005445F9D1002F25D0B9F1000F18D16F4C256845F40E
:140C3C00803525605FF0000901E009F10109B9F5206F04DA12
:140C5000684C246814F4003FF5D0664C246814F4003F0BD1E3
:140C6400002709E0624C256845F480252560604C256845F45C
:140C7800803525608FB15C4C7FF00305266806EA05052560C2
:140C8C00584C256845F001052560564C246804F00C04042C01
:140CA000F9D1DBF808C0CCF80480DBF808C0CCF80870B946BD
:140CB400B9F1000F00D1C146DBF840C0CC4540F28A805FF02C
:140CC800000A5FF002092BE05FF0020CCBF804C01CE0DBF8F6
:140CDC0040C0DBF804300CFB03F4B4FBF9FCCBF800C0C024F4
:140CF000DBF800C0644507D8DBF800C0BCF5D87F02D85FF011
:140D0400010A0AE0DBF804C00CF1020CCBF804C0DBF804C026
:140D1800BCF1080FDDD9BAF1000F04D1A9F10109B9F1000F61
:140D2C00D0D1B9F1000F01D1002056E017B14FF4800A02E0BA
:140D400047465FF0000AB7FBF9F73024B9FBF4F9B9F1020F67
:140D540002D3B9F10F0F01D95FF00209DBF800C047EA8C1456
:140D6800DBF804C04FEA5C056D1E44EA054444EA0A0444EADA
:140D7C0009641E4D2C601C4C256845F080752560194C24686A
:140D900014F0007FFAD0164C7FF00305266806EA050525601C
:140DA400124C256845F002052560104C246804F00C04082C6F
:140DB800F9D1DBF840C0DBF80830C3F80CC0DBF80C000124F4
:140DCC002146022223460024009400F0EFF8044C256845F47A
:140DE000E0652560012008B0BDE8F08F003C02400838024038
:140DF40000380240043802400C38024010300024FFFFF6FE17
:140E08002DE91048ADF1100BDD4604462046594600F02EF827
:140E1C00DBF8000004B0BDE810882DE91148EB461149096893
:140E300001F00C04042C0BD0042C01DC34B105E0082C0ED0B9
:140E4400082C01DB0C2C0CD000200BE00749096811F4802FF6
:140E580001D0022004E0012002E0032000E0042001B0BDE82F
:020E6C001088EC
:140E700000380240083802402DE9F04FADF1040BDD46D0F885
:140E840000C0CBF800C00024002502275FF0000A5FF00208F3
:140E98005FF00209434A126802F00C04042C0DD0042C01DCC9
:140EAC0014B101E0082C0FD0DBF800C0DCF804203D4B5A43C9
:140EC0000A6041E0DBF800C0DCF80820394B5A430A6039E060
:140ED400364A126802F480024FEA925A334A126802F03F0843
:140EE800BAF1000F11D0DBF800C0DCF808202F4B5A43B2FB08
:140EFC00F8F247F6C0732B4E366806EA03039B0902FB03F5E2
:140F100010E0DBF800C0DCF80420264B5A43B2FBF8F247F670
:140F2400C073224E366806EA03039B0902FB03F51E4A126807
:140F380002F44032120C521C5700B5FBF7F20A60184A12687B
:140F4C0002F0F00214090A684A60082C05D30A1DE31F1668C1
:140F600026FA03F31360114A126802F4E052940A4A688A60BD
:140F7400042C06D301F10802E31E166826FA03F31360094A09
:140F8800126802F46042540B4A68CA60042C06D301F10C02FF
:140F9C00E31E166826FA03F3136001B0BDE8F08F08380240E2
:140FB0000438024040420F002DE9FF48EB460BF104004FF44D
:140FC4000071FFF7A5FD0446B4B10BF108001021FFF79EFD9B
:140FD80004467CB10BF10C001021FFF797FD48B1DBF828C017
:140FEC00BCF1000F07D0DBF828C0BCF1010F02D07FF00000A5
:1410000086E04A4C7FF08075266806EA05052560DBF828C0B4
:14101400BCF1000F04D0444C256845F0807525603C4C404D57
:14102800266806EA050525603C48FFF7E9FE0746DBF80440E2
:14103C00012505FA04F4B7FBF4F7DBF80440002C08DD324C40
:14105000DBF804506D1E0835266846EA05152560DBF80C4021
:14106400012505FA04F4B7FBF4F42C4DAC4214D9DBF80C404E
:14107800641CCBF80C4004E0DBF80C40641CCBF80C40DBF870
:14108C000C40012505FA04F4B7FBF4F4214DAC42F0D8DBF856
:1410A0000840012505FA04F4B7FBF4F41B4DAC4214D9DBF827
:1410B4000840641CCBF8084004E0DBF80840641CCBF80840CB
:1410C800DBF80840012505FA04F4B7FBF4F4114DAC42F0D82E
:1410DC00DBF80C40002C08DD0C4CDBF80C506D1E2D1D2668E6
:1410F00046EA45352560DBF80840012C08DD064CDBF8085013
:121104006D1E2D1D266846EA8525256004B0BDE8F08846
:141118000838024080DE800200BD0105300000200F03FFFF3E
:14112C008C3802402DE9FF49EB4679B1374C246804F0F004F9
:141140004FEA1418B8F1080F31BF0126A8F10704012505FA96
:1411540004F60E602F4C246804F4E0544FEA9428B8F1040F3B
:1411680031BF0126A8F10304012505FA04F63746274C246821
:14117C0004F460444FEA5438B8F1040F31BF0126A8F103048B
:14119000012505FA04F602B1176003B11E60DBF82CC0BCF164
:1411A400000F17D01A4C246814F0807F0AD1012F0CBF4FF037
:1411B80000084FF00208DBF82CC0CCF8008007E0022F94BF64
:1411CC0000270427DBF82CC0CCF80070DBF830C0BCF1000F4B
:1411E00015D00C4C246814F0807F08D1012E0CBF002702270C
:1411F400DBF830C0CCF8007007E0022E94BF00260426DBF863
:1412080030C0CCF8006004B0BDE8F0898C3802400838024064
:14121C002DE9F749EB46884617465FFA88F4002C19DD124CB7
:141230007FF0EC65266806EA050525600E4C5FFA88F56D1E22
:1412440005F00305266846EA45552560052F00D90527084C2F
:14125800BD1C266846EA05652560044808210022032300F04F
:14126C0072FA03B0BDE8F08928020020083802402DE9F7490F
:14128000EB46884617465FFA88F4002C19DD124C7FF078457D
:14129400266806EA050525600E4C5FFA88F56D1E05F0030581
:1412A800266846EA85752560052F00D90527084CBD1C266801
:1412BC0046EAC5652560044809210022032300F042FA03B0A2
:1412D000BDE8F089300200200838024080B541B24A0992000B
:1412E400034B01F01F01012707FA01F1D15080BD00E100E05D
:1412F80080B541B24A099200034B01F01F01012707FA01F15B
:14130C00D15080BD80E100E040B542B2002A09DA42B202F052
:141320000F02121F074B0E0106F0FF06D65405E042B2034BCA
:0A1334000E0106F0FF06D65440BD7E
:1413400000E400E018ED00E02DE97048EB4601FB03F4DBF82B
:1413540014C00CFA04F4056825EA040601FB03F4DBF814C093
:1413680002EA0C0505FA04F426430660BDE870882DE9F047C4
:14137C008C0801F00301A30018180F275FF0040990468A46C9
:1413900006460AFB09F307FA03F3356825EA03040AFB09F351
:1413A40008EA070505FA03F31C433460BDE8F0872DE9FF4FCF
:1413B800ADF1040BDD4680465FF0000CCBF800C00FE0704C02
:1413CC00DBF800C04FEA8C052C59DBF808C064450DD0DBF837
:1413E00000C00CF1010CCBF800C0684CDBF800C04FEA8C059B
:1413F4002C59002CE7D1644CDBF800C04FEA8C052C590CB925
:141408000020A6E0D8F800A0DAF80480C1464FFA89F94FEA59
:14141C005914A400594D09F01F06012707FA06F66651554C6A
:14143000256845F480452560504C246854B95048FFF7E2FCF7
:141444000525B0FBF5F40725B4FBF5F44A4D2C60DAF800908D
:14145800DBF808C0CAF808C09BF90CC08AF80CC04846DBF84C
:14146C003C1000F0EDFEDBF80800494600F033F9DBF80800E4
:1414800049469BF80C2000F0E8F93B484946DBF80020FFF73E
:1414940071FF374C012505FA09F5266846EA050525609BF94D
:1414A80010C05FFA8CF414F0010F08D02E4C012505FA09F5FE
:1414BC00266846EA0505256008E02A4C012505FA09F5ED431E
:1414D000266806EA050525609BF910C05FFA8CF414F0020FA9
:1414E40008D0214C012505FA09F5266846EA0505256008E057
:1414F8001C4C012505FA09F5ED43266806EA05052560DBF845
:14150C003890C2464FFA8AF4002C0BDA4FFA8AF404F00F0455
:14152000241F114D4FEA091606F0FF06665507E04FFA8AF45A
:141534000B4D4FEA091606F0FF0666554FFA88F84FEA5814CF
:14154800A400054D08F01F06012707FA06F66651012005B0CA
:14155C00BDE8F08F00E100E000E400E018ED00E00C3C014064
:14157000083C0140003C014008380140EC0700203000002081
:141584004438024080E100E07401002090B5016849680C460E
:1415980064B261098900044A04F01F03012707FA03F38B50D8
:0215AC0090BDF0
:1415B00000E100E090B5016849680C4664B261098900044A5E
:0E15C40004F01F03012707FA03F38B5090BDBC
:1415D40080E100E02DE9F049EB468046D8F800705FF00008E5
:1415E80001E008F10108074C2468A045F9D3B86800F00FF964
:1415FC003D68012606FA05F52842F6D0BDE8F089EC070020B4
:1416100040B542B2002A09DA42B202F00F02121F074B0E0147
:1416240006F0FF06D65405E042B2034B0E0106F0FF06D65432
:0216380040BDB3
:14163C0000E400E018ED00E02DE97048EB4601FB03F4DBF82C
:1416500014C00CFA04F4056825EA040601FB03F4DBF814C094
:1416640002EA0C0505FA04F426430660BDE870882DE9F047C5
:1416780003275FF0020990468A4606460AFB09F307FA03F3F0
:14168C00356825EA03040AFB09F308EA070505FA03F31C4344
:1416A0003460BDE8F0872DE9F047CC0801F00701A300181899
:1416B4000F275FF0040990468A4606460AFB09F307FA03F3A6
:1416C800356825EA03040AFB09F308EA070505FA03F31C4308
:1416DC003460BDE8F0872DE9F04BEB4681460F46D9F800805B
:1416F000D8F80040D8F80450266846EA05052560D8F808008D
:1417040039460022FFF7B4FFBDE8F08B2DE9F04FEB46824619
:1417180088461746DAF80090D9F80040D9F80450266846EA3C
:14172C0005052560D9F8080041460122FFF79CFF082459F889
:14174000044004F108004146FAB2FFF793FFBDE8F08F2DE95F
:14175400FF4FEB46824617469846DAF80090D9F80040D9F8BB
:141768000450266846EA05052560D9F80800DBF804100222E8
:14177C00FFF77AFF082459F8044004F10800DBF804105FFAEC
:1417900088F2FFF76FFF5046DBF80410002200F044F8D9F8CB
:1417A400084004F12000DBF804103A46FFF779FF04B0BDE8A6
:1417B800F08F2DE90F48EB46024803F055FF04B0BDE800888E
:1417CC004C6000082DE9F04BEB4681460F46D9F80080D8F896
:1417E0000040D8F80450266846EA05052560D8F808003946ED
:1417F4000322FFF73DFF48463946002200F02BF8082458F8CC
:14180800044004F1080039460222FFF72FFFBDE8F08B01683B
:14181C00896808697047026892685161704760B5D3B253B92C
:1418300003689B681B1D01258D40ED431E6806EA05051D60DE
:1418440008E003689B681B1D01258D401E6846EA05051D60D2
:1418580060BD2DE9F048EB4607460E4615463C68A46804F13F
:14186C000C003146EAB2FFF7FFFEBDE8F0882DE97048EB463A
:1418800005460C4616462846214600F022F83046FFF78CF88C
:141894002846214600F015F8BDE870882DE97048EB46054687
:1418A8000C4616462846214600F009F83046FFF779F828466D
:1418BC00214600F008F8BDE8708801228A4003689B681A832C
:0E18D000704701228A4003689B685A83704764
:1418E00080B541B24A099200034B01F01F01012707FA01F16D
:1418F400D15080BD00E100E080B541B24A099200034B01F075
:141908001F01012707FA01F1D15080BD80E100E040B542B208
:14191C00002A09DA42B202F00F02121F074B0E0106F0FF0626
:12193000D65405E042B2034B0E0106F0FF06D65440BD23
:1419440000E400E018ED00E02DE97048EB4601FB03F4DBF821
:1419580014C00CFA04F4056825EA040601FB03F4DBF814C089
:14196C0002EA0C0505FA04F426430660BDE870882DE90048A9
:14198000ADF1040BDD460368134303600B6813430B60002308
:14199400CBF8003004E0DBF800305B1CCBF80030DBF80030F8
:1419A800052BF6DB0B6893430B6001B0BDE800880268D161FC
:1419BC00704710B50468216310BD30B50468E5682162A262B9
:1419D0000AB10023136030BD30B50468E5686162E2620AB165
:1419E4000023136030BD2DE9F34FEB468246DAF80080D8F8F9
:1419F8000C90DBF804C0BCF1000F0FD050460021FFF7D6FF8B
:141A0C00DBF804C04CF48044A9F80840B9F8004044F4806435
:141A2000A9F8004009F10404258845F4E06525805FF00009A7
:141A3400D8F81040A2464FFA8AF4002C0BDA4FFA8AF404F003
:141A48000F04241F124D4FEA091606F0FF06665507E04FFA97
:141A5C008AF40D4D4FEA091606F0FF066655D8F81040A0468A
:141A70004FFA88F84FEA5814A400054D08F01F06012707FAB8
:0A1A840006F6665102B0BDE8F08FCF
:141A900000E100E000E400E018ED00E0B0B50468E568291D74
:141AA4007FF4E0620B8803EA02020A8021690C4664B261090F
:121AB8008900044A04F01F03012707FA03F38B50B0BDC8
:141ACC0080E100E02DE9F14FADF1080BDD46DBF808C0DCF82C
:141AE0000030CBF80030DBF800C0DCF80C805FF000095FF035
:141AF400000AB8F8144014F0400F38D0B8F810408BF80740AB
:141B0800DBF800C0DCF820403CB19BF80700DBF800C0DCF814
:141B1C002040A0478146DBF800C0DCF81C4014B3B9F1FF3F35
:141B300014D1DBF8080000F03CF95B4CDBF800C0CCF820405E
:141B4400DBF800C0DCF828408CB10124DBF800C0DCF828507D
:141B58002C600AE0B9F1000F07DA7FF48064B8F8005005EA23
:141B6C000404A8F80040B8F8144014F0800F2FD0DBF800C054
:141B8000DCF82440002C29D00BF10700DBF800C0DCF8244026
:141B9400A04781469BF80740A8F81040B9F1000F1ADA404C8C
:141BA800DBF800C0CCF82440DBF800C0DCF82C402CB1012499
:141BBC00DBF800C0DCF82C502C60DBF800C0DCF81C402CB106
:141BD000DBF8080000F0EDF85FF0010ADBF800C0DCF81C4034
:141BE40014BBB8F8144014F0020F03D0B8F81440B8F8184026
:141BF800B8F8144014F0100F4CD0B8F81440B8F8004044F06E
:141C0C000104A8F80040DBF800C0DCF82840002C3ED00124B1
:141C2000DBF800C0DCF828502C6037E0B9F1FF3F34D1DBF86E
:141C340000C0DCF82040002C2ED1DBF800C0DCF82440002C86
:141C480028D108F104047FF4C065268806EA05052580DBF8D6
:141C5C0000C0DCF81040A0464FFA88F84FEA5814A4000D4D3E
:141C700008F01F06012707FA06F66651DBF800C0DCF81C40A4
:141C840054B1BAF1000F07D1DBF80800DBF800C0DCF818104B
:0A1C980000F090F903B0BDE8F08FF2
:141CA40080E100E0000000002DE9F04BEB46074688461646F2
:141CB8009946404631464A460223FFF746FD4046314601222E
:141CCC00FFF7ADFDDBF82000DBF82410DBF828200223FFF734
:141CE00038FDDBF82000DBF824100122FFF79DFD3E683068D0
:141CF4007168B268FFF740FE384600F0D0F8044DB0FBF5F49A
:141D080074617FF000043463BDE8F08B40420F0070B50668A4
:141D1C00F468F269002A45D0228842F00102228042F4807214
:141D30002280326B22B9A28A12F0010FFBD00EE0326B002AC7
:141D440002DA44F6206500E0356BA28A12F0010F03D16A1ED6
:141D58001546002AF7DC01F0FF022282326B22B9A28A12F0E3
:141D6C00020FFBD00EE0326B002A02DA44F6206500E0356BB7
:141D8000A28A12F0020F03D16A1E1546002AF7DCA28A228B83
:141D940011F0010F04D0228842F48062228005E07FF48062B8
:141DA800238803EA0202228070BD70B50668F468F16900294A
:141DBC0025D0316B51B904F114010A8812F0800FF9D00988F1
:141DD00011F0040FF5D014E0316B002902DA44F6206500E0F2
:141DE400356B04F114010A8812F0800F03D0098811F0040FA6
:141DF80003D1691E0D460029F1DC218841F40071218070BD16
:141E0C0070B50668F468326B52B904F11402138813F0800FF3
:141E2000F9D0128812F0040FF5D014E0326B002A02DA44F6A0
:141E3400206500E0356B04F11402138813F0800F03D01288F0
:141E480012F0040F03D16A1E1546002AF1DC2174002070BDE1
:141E5C0070B50668F46829B17FF48062238803EA0202228016
:141E7000326B22B9A28A12F0400FFBD00EE0326B002A02DA0D
:141E840044F6206500E0356BA28A12F0400F03D16A1E1546D7
:141E9800002AF7DC228AD0B270BD2DE90148ADF1100BDD46A3
:121EAC0004485946FEF7E2FFDBF8080005B0BDE80088A6
:141EC000300000202DE9F04FEB4607460E463846FFF7E7FF3D
:141ED4008146214CB9FBF4F8B8F1320F01D95FF03208F4B233
:141EE800002C01DB032C00DD0126194CF5B2AD0055F804A001
:141EFC00F4B2012C09DC4FEA4A04B9FBF4F6042E00D20426C7
:141F100008F1010716E0032404FB0AF4B9FBF4F640F6FF745B
:141F2400264201D146F0010646F400464FF4967404FB08F46A
:141F38004FF47A75B4FBF5F4641CA7B24FF6FF7407EA040441
:0A1F4C00350445EA0400BDE8F08FFB
:141F5800FC02002040420F002DE9F04BEB4605460F469146CD
:141F6C00D5F80080D8F80C60D8F818400CB9002501E07FF076
:141F80000005C8F81890D8F80000D8F80410D8F80820FFF73E
:141F9400F3FC00243480D8F81440B4803C0CB4834FF6FF74E3
:141FA80007EA04043484348844F0010434802846BDE8F08B3D
:141FBC0070B50568AA698A420CBF00246FF000040A4AAA61EF
:141FD0000022EB681A80EB689A802A68AB68166826EA030348
:121FE40013606A68AB68166826EA03031360204670BDF9
:141FF8000000000010B504684FF40041E26811800021E268DA
:0E200C00118010BD00B50248FFF75CFD00BD5D
:14201C00F002002000B55820FEF75EFB00BD00B50148FFF772
:122030004FFD00BDF402002000B50248FFF748FD00BD88
:14204400F802002040B542B2002A09DA42B202F00F02121F50
:14205800074B0E0106F0FF06D65405E042B2034B0E0106F0C2
:06206C00FF06D65440BD42
:1420740000E400E018ED00E02DE97048EB4601FB03F4DBF8EA
:1420880014C00CFA04F4056825EA040601FB03F4DBF814C052
:14209C0002EA0C0505FA04F426430660BDE8708801604260CD
:1420B00070472DE9F048EB4607463868FFF7ADFB04467D682C
:1420C400012606FA05F504EA0500BDE8F0882DE9F04BEB4655
:1420D80080468946D8F80000FFF79BFBD8F80450012606FAB8
:1420EC0005F5ED4300EA0507B9F1000F05D0D8F804400125F8
:1421000005FA04F42743D8F800003946FFF789FBBDE8F08B81
:142114002DE91048EB46044620686168FFF7D1FBBDE810887E
:142128002DE91048EB46044620686168FFF7CDFBBDE810886E
:14213C002DE91048EB4604462046FFF7B4FF18B12046FFF772
:14215000EBFF02E02046FFF7DDFFBDE810882DE93048EB467B
:1421640005462846FFF7A3FF04460CB1012500E00025284676
:14217800BDE830882DE93048EB4605462846FFF794FF0446AB
:14218C000CB9012500E000252846BDE830882DE93048EB46C5
:1421A00005460C46286869682246FFF766FBBDE830882DE9FB
:1421B4003048EB4605460C46286869682246FFF76DFBBDE805
:0221C80030885D
:1421CC0080B541B24A099200034B01F01F01012707FA01F178
:1421E000D15080BD80E200E040B542B2002A09DA42B202F06F
:1421F4000F02121F074B0E0106F0FF06D65405E042B2034BE8
:0A2208000E0106F0FF06D65440BD9B
:1422140000E400E018ED00E02DE97048EB4601FB03F4DBF848
:1422280014C00CFA04F4056825EA040601FB03F4DBF814C0B0
:14223C0002EA0C0505FA04F426430660BDE87088002801DB2A
:0E2250000F2800DD02E08200014BD1507047E4
:142260000C0300202DE9F049EB46104C246814F0010F08D0E7
:142274000E4C246814B10D4C2468A04701240A4D2C605FF088
:1422880006084FFA88F84FEA5814A400044D08F01F0601278C
:0A229C0007FA06F66651BDE8F08966
:1422A80080E200E0143C01400C0300202DE9F049EB46104C44
:1422BC00246814F0020F08D00E4C246814B10D4C2468A0471E
:1422D00002240A4D2C605FF007084FFA88F84FEA5814A40081
:1222E400044D08F01F06012707FA06F66651BDE8F08980
:1422F80080E200E0143C0140100300202DE9F049EB46104CF0
:14230C00246814F0040F08D00E4C246814B10D4C2468A047CB
:1423200004240A4D2C605FF008084FFA88F84FEA5814A4002D
:12233400044D08F01F06012707FA06F66651BDE8F0892F
:1423480080E200E0143C0140140300202DE9F049EB46104C9B
:14235C00246814F0080F08D00E4C246814B10D4C2468A04777
:1423700008240A4D2C605FF009084FFA88F84FEA5814A400D8
:12238400044D08F01F06012707FA06F66651BDE8F089DF
:1423980080E200E0143C0140180300202DE9F049EB46104C47
:1423AC00246814F0100F08D00E4C246814B10D4C2468A0471F
:1423C00010240A4D2C605FF00A084FFA88F84FEA5814A4007F
:1223D400044D08F01F06012707FA06F66651BDE8F0898F
:1423E80080E200E0143C01401C0300202DE9F049EB465FF000
:1423FC0017084FFA88F84FEA5814A4002E4D08F01F060127DC
:1424100007FA06F66651254C246814F0200F08D0274C2468FD
:1424240014B1264C2468A04720241F4D2C601E4C246814F0C4
:14243800400F08D01F4C246814B11E4C2468A0474024184D07
:14244C002C60174C246814F0800F08D0174C246814B1164C80
:142460002468A0478024114D2C60104C246814F4807F09D09F
:142474000F4C246814B10E4C2468A0474FF48074094D2C60C2
:14248800084C246814F4007F09D0074C246814B1054C24687F
:0E249C00A0474FF40074024D2C60BDE8F0899B
:1424AC00143C0140300300202C030020280300202403002057
:1424C0002003002080E200E02DE9F049EB465FF028084FFA3B
:1424D40088F84FEA5814A400384D08F01F06012707FA06F664
:1424E80066512E4C246814F4806F09D0314C246814B1304C09
:1424FC002468A0474FF48064274D2C60264C246814F4006FBD
:1425100009D0294C246814B1274C2468A0474FF40064204D1E
:142524002C601F4C246814F4805F09D0204C246814B11F4C38
:142538002468A0474FF48054184D2C60174C246814F4005FBE
:14254C0009D0184C246814B1164C2468A0474FF40054114D23
:142560002C60104C246814F4804F09D00F4C246814B10E4C3D
:142574002468A0474FF48044094D2C60084C246814F4004FC0
:1425880009D0074C246814B1054C2468A0474FF40044024D28
:06259C002C60BDE8F0898F
:1425A400143C01404803002044030020400300203C030020FE
:1425B800380300203403002080E200E080B541B24A0992000E
:1425CC00034B01F01F01012707FA01F1D15080BD80E200E0E1
:1425E00040B542B2002A09DA42B202F00F02121F074B0E0168
:1425F40006F0FF06D65405E042B2034B0E0106F0FF06D65453
:0226080040BDD3
:14260C0000E400E018ED00E02DE97048EB4601FB03F4DBF84C
:1426200014C00CFA04F4056825EA040601FB03F4DBF814C0B4
:1426340002EA0C0505FA04F426430660BDE870888200014B64
:14264800D1507047F00700202DE9F049EB46074688463C8A2E
:14265C0014F0010F11D00A4C4FEA88052C5924B1074C4FEA73
:1426700088052C59A04707F110047FF00105268806EA050534
:062684002580BDE8F0898D
:14268C00F00700202DE9F049EB460B480221FFF7D9FF5FF010
:1426A0001C084FFA88F84FEA5814A400044D08F01F0601275A
:0A26B40007FA06F66651BDE8F0894A
:1426C00080E200E0000000402DE9F049EB460B480321FFF797
:1426D400BDFF5FF01D084FFA88F84FEA5814A400044D08F067
:0E26E8001F06012707FA06F66651BDE8F089C5
:1426F80080E200E0000400402DE9F049EB460B480421FFF75A
:14270C00A1FF5FF01E084FFA88F84FEA5814A400044D08F049
:0E2720001F06012707FA06F66651BDE8F0898C
:1427300080E200E0000800402DE9F049EB460B480521FFF71C
:1427440085FF5FF032084FFA88F84FEA5814A400044D08F019
:0E2758001F06012707FA06F66651BDE8F08954
:1427680080E200E0000C00402DE9F049EB460B480621FFF7DF
:14277C0069FF5FF036084FFA88F84FEA5814A400044D08F0F9
:0E2790001F06012707FA06F66651BDE8F0891C
:1427A00080E200E0001000402DE9F049EB460B480721FFF7A2
:1427B4004DFF5FF037084FFA88F84FEA5814A400044D08F0DC
:0E27C8001F06012707FA06F66651BDE8F089E4
:1427D80080E200E0001400402DE9F049EB460B480821FFF765
:1427EC0031FF5FF02C084FFA88F84FEA5814A400044D08F0CB
:0E2800001F06012707FA06F66651BDE8F089AB
:1428100080E200E0000401402DE9F049EB460B480921FFF73A
:1428240015FF5FF018084FFA88F84FEA5814A400044D08F0C2
:0E2838001F06012707FA06F66651BDE8F08973
:1428480080E200E0004001402DE9F049EB460B480B21FFF7C4
:14285C00F9FE5FF01A084FFA88F84FEA5814A400044D08F0A5
:0E2870001F06012707FA06F66651BDE8F0893B
:1428800080E200E0004801402DE9F049EB460E480121FFF78B
:14289400DDFE0B480A21FFF7D9FE5FF019084FFA88F84FEA98
:1428A8005814A400044D08F01F06012707FA06F66651BDE81D
:0228BC00F089A1
:1428C00080E200E0004401400000014040B542B2002A09DA06
:1428D40042B202F00F02121F074B0E0106F0FF06D65405E05D
:0E28E80042B2034B0E0106F0FF06D65440BD6F
:1428F80000E400E018ED00E02DE97048EB4601FB03F4DBF85E
:14290C0014C00CFA04F4056825EA040601FB03F4DBF814C0C5
:1429200002EA0C0505FA04F426430660BDE870882DE90048E5
:14293400ADF1040BDD460368134303600B6813430B60002344
:14294800CBF8003004E0DBF800305B1CCBF80030DBF8003034
:14295C00052BF6DB0B6893430B6001B0BDE800882DE9FF4F70
:14297000EB460746D7F800A0DAF80C80DAF81C400CB90020F5
:142984005FE0DAF80000DAF80410DAF80820FFF7CDFF002468
:14299800A8F80040A8F80440DAF81C00DAF82010DBF808C0DC
:1429AC001CF0020F14BF4FF001094FF002094A46FEF74DFFC3
:1429C000DBF80C00DAF8101000F01EFA8146B8F8004044EA45
:1429D400C904A8F80040DBF808C01CF0030F09D0DBF808C015
:1429E8000CF00304B8F8005045EA0404A8F80040B8F80040D1
:1429FC0044F44174A8F80040DBF804C0CAF828C00824DBF8BA
:142A100004C0644505D2B8F8004044F40064A8F8004008F109
:142A24000404258845F00405258008F11C047FF40065268867
:142A380006EA05052580384600F085F8012004B0BDE8F08F07
:142A4C002DE9F049EB4604460E46154698462768DBF83CC0C1
:142A6000C7F824C0DBF83400DBF838100222FEF74FFE3046C1
:142A7400294642460223FEF76AFEDBF81C00DBF82010DBF810
:142A880024200223FEF761FEDBF82800DBF82C10DBF8302050
:142A9C000223FEF758FEDBF83400DBF83810DBF83CC0BCF118
:142AB000000F14BF4FF001084FF002084246FEF7CCFEDBF885
:142AC4001C00DBF820100022FEF7C5FEDBF82800DBF82C10FB
:142AD8000022FEF7BEFE07F11400DBF83410DBF83820FFF7D3
:142AEC00DFFA07F11C0031462A46FFF7D9FA204600F052F899
:142B0000BDE8F08930B50568EC68228912F0020FFBD0AA6A60
:142B1400082A02D80A46227301E00A46A281228912F0010FAB
:142B2800FBD0AA6A082A01D8207B00E0A08930BD2DE9304890
:142B3C00EB4605462846FF21FFF7DEFF0446BDE83088016898
:142B5000C9680A8842F040020A8070470168C9687FF04002AE
:142B64000B8803EA02020A8070472DE97048EB4606463568B0
:142B78006C6A24B105F11400FFF7D2FA03E005F11400FFF7EF
:142B8C00C3FAED682C8814F0400F03D12C8844F040042C8070
:142BA000BDE870882DE97048EB46064635686C6A24B105F1FB
:142BB4001400FFF7ADFA03E005F11400FFF7B2FABDE8708830
:142BC8002DE9FF4FEB4681461F46D9F80080D8F82840082582
:142BDC00A54202D27FF0000023E0002618E04846DBF80840F1
:142BF00004F1010CCBF808C02178FFF783FF8246DBF804C0D4
:142C0400BCF1000F07D0DBF8044004F1010CCBF804C084F80D
:142C180000A0761CBE42E4DBD8F80C60348914F0800FFBD15F
:142C2C00002004B0BDE8F08F0FB42DE9F04BEB46DBF8204024
:142C4000D4F80080D8F828400825A54202D27FF0000025E0A0
:142C54000BF12C06002716E0361D7FF003043459A146DBF811
:142C680020005FFA89F1FFF749FF8146DBF8244034B1DBF871
:142C7C002440651CCBF8245084F800907F1CDBF82840A7425D
:142C9000E4DBD8F80C60348914F0800FFBD10020BDE8F01B49
:142CA40004B060472DE9FF4FEB46804691469A46D8F800706F
:142CB800BC6A082C02D87FF000001CE0002512E0404639F89B
:142CCC00021BFFF719FF0646DBF804C0BCF1000F06D0DBF881
:142CE000044004F1020CCBF804C026806D1C5545EADBFD681F
:142CF4002C8914F0800FFBD1002004B0BDE8F08F0FB42DE9E7
:142D0800F04BEB46DBF82040D4F80080D8F82840082C02D886
:142D1C007FF0000025E00BF12C06002716E0361D7FF003041B
:142D30003459A146DBF820001FFA89F1FFF7E2FE8146DBF825
:142D4400244034B1DBF82440A51CCBF82450A4F800907F1C3C
:142D5800DBF82840A742E4DBD8F80C60348914F0800FFBD12C
:142D6C000020BDE8F01B04B060472DE9F04FEB4681460F4686
:142D80009246D9F80080D8F828400825A54200D317B97FF0B8
:142D9400000011E0002606E04846FFF7CBFE054607F8015B3B
:142DA800761C5645F6DBD8F80C60348914F0800FFBD10020A1
:142DBC00BDE8F08F2DE9F04FEB4681460F469246D9F8008014
:142DD000D8F82840082C00D917B97FF0000011E0002606E06E
:142DE4004846FFF7A7FE054627F8025B761C5645F6DBD8F81D
:142DF8000C60348914F0800FFBD10020BDE8F08F2DE9F049AC
:142E0C00EB4607468846404600F016F8B0FBF7F8002700E041
:142E20007F1C0224064D7E1CA640765926B107FA04F46459AE
:0A2E3400A045F3D83846BDE8F08948
:142E40006C0400202DE93048ADF1100BDD460546044859464E
:0E2E5400FEF710F85C46285904B0BDE830883F
:142E640030000020EFF31080704780F31088704780B541B2F7
:142E78004A099200034B01F01F01012707FA01F1D15080BD89
:142E8C0000E100E080B541B24A099200034B01F01F010127DD
:142EA00007FA01F1D15080BD80E100E080B541B24A0992007F
:142EB400034B01F01F01012707FA01F1D15080BD80E200E0F0
:142EC80040B542B2002A09DA42B202F00F02121F074B0E0177
:142EDC0006F0FF06D65405E042B2034B0E0106F0FF06D65462
:022EF00040BDE3
:142EF40000E400E018ED00E02DE97048EB4601FB03F4DBF85C
:142F080014C00CFA04F4056825EA040601FB03F4DBF814C0C3
:142F1C0002EA0C0505FA04F426430660BDE870882DE90048E3
:142F3000ADF1040BDD460368134303600B6813430B60002342
:142F4400CBF8003004E0DBF800305B1CCBF80030DBF8003032
:142F5800052BF6DB0B6893430B6001B0BDE800882DE97F48F5
:142F6C00EB460E4615461C463046294622460223FEF7E9FBC4
:142F8000DBF82400DBF82810DBF82C200223FEF7E0FB04B073
:142F9400BDE870882DE9FF4FEB4680469946DBF804C0BCF10E
:142FA800000F0CD0B9F1000F09D0DBF808C0BCF1000F04D06D
:142FBC00DBF834C0BCF1000F02D17FF0000057E0D8F80080B5
:142FD000012488F81940D8F81040A2464FFA8AFA4FEA5A1473
:142FE400A4002A4D0AF01F06012707FA06F6665108F12400A6
:142FF800DBF80410DBF80820FDF734FD08F138004946DBF82B
:14300C003420FDF72DFD0C2458F804400C34258845F0200533
:1430200025805FF00009D8F81040A2464FFA8AF4002C0BDABF
:143034004FFA8AF404F00F04241F134D4FEA091606F0FF06C4
:14304800665507E04FFA8AF40D4D4FEA091606F0FF066655A3
:14305C00D8F81040A0464FFA88F84FEA5814A400054D08F0FE
:123070001F06012707FA06F66651002004B0BDE8F08F55
:1430840000E100E000E400E018ED00E080E100E02DE97048BF
:14309800EB4681B006463568304605F14C010C24224605F192
:1430AC0058030094FFF772FF044601B0BDE8708810B50468F1
:1430C000637E012B06D1E16122620AB100231360002001E000
:1430D4007FF0000010BD2DE9F04FEB4607460E465FF000082E
:1430E8005FF0000A3F687C7E012C28D107F12400FDF792FC16
:1430FC000028F9D1EFF31080C8465FF0010989F3108807F1E9
:143110002400FDF787FC814607F124003146FDF7A8FCB9F174
:14312400000F06D00C243C590C34258845F080052580B8F1F8
:14313800000F0DD15FF0000888F3108808E0FC68248814F030
:14314C00800FFAD006F0FF04FD68AC803046BDE8F08F2DE9DC
:143160007048EB46064635686C7E012C0AD105F13800FDF775
:1431740057FC04460CB9012600E00026304607E0EC6824885B
:1431880014F0200F14BF012500252846BDE870882DE9704809
:14319C00EB46064635686C7E012C0DD105F13800FDF73AFCB8
:1431B00028B905F13800FDF77AFC04460BE07FF0000008E006
:1431C400EC68248814F0200FFAD0EC68A48804F0FF00BDE8E2
:1431D80070882DE9F04BADF1100BDD46074688463C68E668B1
:1431EC0007485946FDF742FE5C463D686D692F59B7FBF8F965
:14320000B7FBF8F4348104B0BDE8F08B300000202DE9F04BF2
:14321400EB460746D7F80C801AE007F12400FDF7FFFB38B9D8
:1432280007F12400FDF73FFC81464C46A8F8044007F12400EE
:14323C00FDF7F2FB40B108F10C047FF08005268806EA050507
:14325000258026E0B8F8004014F0800FDFD120E0FC6994B1E2
:14326400B8F804402046FC69A0478146B9F1FF3F01D10E4CD5
:14327800FC613C6A2CB107F13800FDF7DBFB3D6A286007F141
:14328C003800FDF7C7FB58B907F13800B8F804402146FDF7B0
:1432A000E8FBB8F8004014F0200FD9D1BDE8F08B000000004A
:1432B4002DE9FF4FEB46064690469A46D6F80090D9F80C70C4
:1432C800D9F80000D9F80410D9F80820FFF72AFE0024BC81C4
:1432DC003C82BC82B8F1090F02D14FF48054BC81BAF1020F3E
:1432F00002D14FF400543C829BF934C05FFA8CF4012C02D141
:143304004FF44074BC829BF934C089F818C03046DBF8041042
:14331800FFF75FFF07F10C04258845F00C052580304600F047
:14332C0003F804B0BDE8F08F0C21026851580C310A8842F475
:1433400000520A8070470C21026851580C317FF400520B8811
:1433540003EA02020A8070472DE9F049EB460B4C2068FFF7DE
:1433680053FF5FF025084FFA88F84FEA5814A400044D08F028
:0E337C001F06012707FA06F66651BDE8F08924
:14338C0080E200E0B00700202DE9F049EB460B4C2068FFF7BF
:1433A00037FF5FF026084FFA88F84FEA5814A400044D08F00B
:0E33B4001F06012707FA06F66651BDE8F089EC
:1433C40080E200E0B40700202DE9F049EB460B4C2068FFF783
:1433D8001BFF5FF027084FFA88F84FEA5814A400044D08F0EE
:0E33EC001F06012707FA06F66651BDE8F089B4
:1433FC0080E200E0B80700202DE9F049EB460B4C2068FFF747
:14341000FFFE5FF034084FFA88F84FEA5814A400044D08F0C5
:0E3424001F06012707FA06F66651BDE8F0897B
:1434340080E200E0BC0700202DE9F049EB460B4C2068FFF70A
:14344800E3FE5FF035084FFA88F84FEA5814A400044D08F0A8
:0E345C001F06012707FA06F66651BDE8F08943
:14346C0080E200E0C00700202DE9F049EB460B4C2068FFF7CE
:14348000C7FE5FF047084FFA88F84FEA5814A400044D08F07A
:0E3494001F06012707FA06F66651BDE8F0890B
:1434A40080E200E0C40700202DE9F049EB460B4C2068FFF792
:1434B800ABFE5FF052084FFA88F84FEA5814A400044D08F053
:0E34CC001F06012707FA06F66651BDE8F089D3
:1434DC0080E200E0C80700202DE9F049EB460B4C2068FFF756
:1434F0008FFE5FF053084FFA88F84FEA5814A400044D08F036
:0E3504001F06012707FA06F66651BDE8F0899A
:1435140080E200E0CC070020004870477C6000082DE97048BD
:14352800EB4681B006460D46552047214FF6FF7406EA040203
:14353C00330CACB2009400F0D7FF044620B201B0BDE870881A
:143550002DE91048EB460120462100F0CBFF044620B2BDE8C5
:1435640010882DE93048EB460546092001212A4600F0BEFF49
:14357800044620B2BDE830882DE93048EB4604460D46092041
:14358C000221224600F0B0FF04461DB12946012201F064F909
:1435A000A0B2BDE830882DE91048EB460120052100F0A0FFF3
:1435B400044620B2BDE810882DE91048EB460120322100F0A7
:1435C80095FF0446A0B2BDE810882DE93048EB460546052053
:1435DC003321AAB200F088FF044620B2BDE830882DE93048AD
:1435F000EB46054605203521AAB200F07BFF044620B2BDE849
:1436040030882DE91048EB460120362100F070FF044620B268
:14361800BDE810882DE97048EB4606460D4625203421B2B2C5
:14362C002B4600F061FF044620B2BDE870882DE93048EB4651
:14364000054605201821AAB200F054FF044620B2BDE83088B5
:143654000FB42DE9F049EB460BF124062024134D2D682C8014
:14366800BBF81C40104D2D686C800227BBF820803C4601253D
:14367C00671CAC400B4D2D6824F80580361D7FF003043459E7
:14369000A0461FFA88F4002CEED1054C2068790001F074F811
:1436A400044620B2BDE8F01904B06047D40700200FB42DE919
:1436B800F049EB460BF124062C24134D2D682C80BBF81C406E
:1436CC00104D2D686C800227BBF820803C460125671CAC4079
:1436E0000B4D2D6824F80580361D7FF003043459A0461FFAF3
:1436F40088F4002CEED1054C2068790001F044F8044620B2C0
:14370800BDE8F01904B06047D40700202DE91048EB460120E9
:14371C002D2100F0E9FE044620B2BDE810882DE9F04BEB4699
:1437300082B08146884616461F4640F255100A211FFA89F2A7
:14374400C8231FFA88F40094B4B2019400F0D0FE06463FB168
:143758000124B5B26D1C28463946224601F080F8B0B202B076
:14376C00BDE8F08B2DE9F04BEB4682B08146884616461F461F
:1437800040F255100A211FFA89F2C9231FFA88F40094B4B264
:14379400019400F0ADFE06463FB10124B5B26D1C28463946B3
:1437A800224601F05DF8B0B202B0BDE8F08B2DE9F04BEB46A9
:1437BC0082B08146884616461F4640F255100A211FFA89F21B
:1437D000CA231FFA88F40094B4B2019400F08AFE06463FB120
:1437E4000124B5B26D1C28463946224601F03AF8B0B202B030
:1437F800BDE8F08B2DE9F04BEB4682B08146884616461F4693
:14380C0040F255100A211FFA89F2CB231FFA88F40094B4B2D5
:14382000019400F067FE06463FB10124B5B26D1C284639466C
:14383400224601F017F8B0B202B0BDE8F08B2DE9F049EB4664
:1438480081B080460E46174655200A211FFA88F2CC23B4B23C
:14385C00009400F049FE06463FB10124B5B26D1C284639464F
:14387000224600F0F9FFB0B201B0BDE8F0892DE9F049EB4643
:1438840081B080460E46174655200A211FFA88F2CD23B4B2FF
:14389800009400F02BFE06463FB10124B5B26D1C2846394631
:1438AC00224600F0DBFFB0B201B0BDE8F0892DE9F04BEB4623
:1438C00082B08146884616461F4640F255100A211FFA89F216
:1438D400DC231FFA88F40094B4B2019400F008FE06463FB18B
:1438E8000124B5B26D1C28463946224600F0B8FFB0B202B0A7
:1438FC00BDE8F08B2DE9F049EB4683B080460F4616461D460B
:1439100040F255500A211FFA88F2CE23BCB20094B4B2019420
:14392400ACB2029400F0E4FD0546DBF81CC0BCF1000F07D03D
:14393800ACB2641C2046DBF81C10052200F090FFA8B203B085
:14394C00BDE8F0892DE9F049EB4682B080460F4615461E46BD
:1439600040F255200A211FFA88F2CF23BCB20094019500F074
:14397400BFFD054636B1ACB2641C20463146022200F070FF13
:14398800A8B202B0BDE8F0892DE9F049EB4682B080460F4634
:14399C0015461E4640F255200A211FFA88F2D223BCB20094FC
:1439B000019500F09FFD054636B1ACB2641C204631460222D0
:1439C40000F050FFA8B202B0BDE8F0892DE9F048EB4681B0D6
:1439D80007460D46164695200A21BAB2D023009500F084FD9A
:1439EC00054636B1ACB2641C20463146062200F035FFA8B234
:143A000001B0BDE8F0882DE9F049EB4681B080460E461746BC
:143A140055200A211FFA88F2D123B4B2009400F067FD0646DD
:143A28003FB10124B5B26D1C28463946224600F017FFB0B2C8
:143A3C0001B0BDE8F0892DE9F049EB4681B080460E4617467F
:143A500095200A211FFA88F2D723009600F04AFD06463FB1EC
:143A64000124B5B26D1C28463946224600F0FAFEB0B201B0E9
:143A7800BDE8F0892DE9F049EB4681B080460E46174695203F
:143A8C000A211FFA88F2D923009600F02DFD06463FB101245B
:143AA000B5B26D1C28463946224600F0DDFEB0B201B0BDE84A
:143AB400F0892DE9F04BEB4682B08146884616461F4640F249
:143AC80055200A211FFA89F2D8231FFA88F40094019600F00B
:143ADC000BFD06463FB10124B5B26D1C28463946224600F038
:143AF000BBFEB0B202B0BDE8F08B2DE9F049EB4681B080465E
:143B04000E46174655200A211FFA88F2DD23B4B2009400F0DF
:143B1800EDFC06463FB10124B5B26D1C28463946224600F01A
:143B2C009DFEB0B201B0BDE8F0892DE9F049EB4681B0804642
:143B40000E46174655200A211FFA88F2DE23B4B2009400F0A2
:143B5400CFFC06463FB10124B5B26D1C28463946224600F0FC
:143B68007FFEB0B201B0BDE8F0892DE9F049EB4682B0804623
:143B7C000D4617461E4655200A211FFA88F2DF23ACB20094FA
:143B9000BCB20CB9012500E0BDB2019500F0AAFC054636B11B
:143BA400ACB2641C20463146062200F05BFEA8B202B0BDE830
:143BB800F0892DE9F048EB4681B007460D46164655200A2134
:143BCC00BAB2E023ACB2009400F08EFC054636B1ACB2641CFA
:143BE00020463146052200F03FFEA8B201B0BDE8F0882DE962
:143BF4007048EB4605460E4615200A21AAB2E12300F076FC13
:143C0800054636B1ACB2641C20463146062200F027FEA8B224
:143C1C00BDE870882DE9F049EB4683B080460F4616461D466A
:143C300040F655100A211FFA88F24FF49673BCB20094B4B273
:143C44000194029500F054FC0446A0B203B0BDE8F0892DE97D
:143C58007048EB4682B006460D4640F255200A21002240F278
:143C6C009113B4B20094019500F03EFC0446A0B202B0BDE8F3
:143C800070882DE9F048EB4683B007460E46154640F25550B3
:143C94000A21BAB24FF4A073B4B2009401952C0C029400F0E1
:143CA80025FC0446A0B203B0BDE8F0882DE9F048EB4682B0CA
:143CBC0007460E46154640F255100A21BAB240F22D13B4B2F2
:143CD0000094ACB2019400F00DFC0446A0B202B0BDE8F088F5
:143CE4002DE9F048EB4682B007460E46154640F255100A215D
:143CF800BAB24FF49773B4B20094ACB2019400F0F5FB0446E8
:143D0C00A0B202B0BDE8F0882DE9F048EB4682B007460E4630
:143D2000154640F255100A21BAB240F22F13B4B20094ACB23A
:143D3400019400F0DDFB0446A0B202B0BDE8F0882DE9F04865
:143D4800EB4682B007460E46154640F255100A21BAB24FF497
:143D5C009873B4B20094ACB2019400F0C5FB0446A0B202B05D
:143D7000BDE8F0882DE9F048EB4682B007460E46154640F243
:143D840055100A21BAB240F23113B4B20094ACB2019400F0DC
:143D9800ADFB0446A0B202B0BDE8F0882DE9F048EB4682B053
:143DAC0007460E46154640F255100A21BAB24FF49973B4B224
:143DC0000094ACB2019400F095FB0446A0B202B0BDE8F0887D
:143DD4002DE9F048EB4682B007460E46154640F255100A216C
:143DE800BAB24FF49A73B4B20094ACB2019400F07DFB04466C
:143DFC00A0B202B0BDE8F0882DE9F048EB4682B007460E4640
:143E1000154640F255100A21BAB240F23313B4B20094ACB245
:143E2400019400F065FB0446A0B202B0BDE8F0882DE9F049EB
:143E3800EB4683B080460F4616461D4641F655700A211FFAF8
:143E4C0088F24FF49B7300970196ACB2029400F04BFB0446F5
:143E6000A0B203B0BDE8F0892DE9F049EB4683B080460F465D
:143E740016461D4641F655700A211FFA88F240F237130097AE
:143E88000196ACB2029400F031FB0446A0B203B0BDE8F08912
:143E9C002DE97048EB4606460D4615200C21B2B2ABB200F061
:143EB00021FB044620B2BDE870882DE93048EB4605460520FA
:143EC4000E21AAB200F014FB0446A0B2BDE830882DE9F04918
:143ED800EB4684B080460F4616461D4641F255500F211FFA76
:143EEC0088F2BBB2B4B20094C8240194ACB20294BBF81CC0DD
:143F00001FFA8CF4039400F0F5FA0546DBF820C0BCF1000FE4
:143F140004D0DBF82010012200F0A4FCA8B204B0BDE8F089E3
:143F28002DE97048EB4606460D4625200B21B2B22B4600F0B1
:143F3C00DBFA044620B2BDE870882DE93048EB4605460520B4
:143F50001921AAB200F0CEFA044620B2BDE830882DE97048C8
:143F6400EB4606460D4625201721B2B22B4600F0BFFA044634
:143F7800A0B2BDE870882DE9F048EB4681B007460E46552080
:143F8C001F21BAB24FF6FF7406EA0403350C05EA04040094FA
:143FA00000F0A8FA044620B201B0BDE8F0882DE9F04BEB460F
:143FB40083B08146884617461E4640F255501E211FFA89F2C6
:143FC8001FFA88F3BCB200944FF6FF7406EA04050195350CC7
:143FDC0005EA0404029400F087FA044620B203B0BDE8F08BE4
:143FF0002DE97048EB4606460D4615201421B2B2ABB200F004
:1440040077FA044620B2BDE870882DE9F048EB4681B0074681
:144018000E46154655201421BAB2B3B2ACB2009400F064FA2A
:14402C00044620B201B0BDE8F0882DE9F049EB4682B080461E
:144040000F4616461D4640F2551014211FFA88F2BBB2B4B226
:144054000094ACB2019400F04BFA044620B202B0BDE8F089B0
:144068002DE97048EB4606460D4625201421B2B22B4600F067
:14407C003BFA044620B2BDE870882DE97048EB4606460D46A4
:1440900030462946FFF7ACFF044620B2BDE870882DE970480F
:1440A400EB4606460D4630462946FFF79FFF044620B2BDE8FE
:1440B80070882DE97048EB4606460D4630462946FFF792FFF2
:1440CC00044620B2BDE870882DE97048EB4606460D46304613
:1440E0002946FFF785FF044620B2BDE870882DE97048EB462B
:1440F40006460D4630462946FFF778FF044620B2BDE870880E
:144108002DE97048EB4606460D4630462946FFF76BFF044676
:14411C0020B2BDE870882DE97048EB4606460D46304629469D
:14413000FFF75EFF044620B2BDE870882DE97048EB46064624
:144144000D4630462946FFF751FF044620B2BDE870882DE91A
:144158007048EB4606460D4630462946FFF744FF044620B291
:14416C00BDE870882DE97048EB4606460D4630462946FFF729
:1441800037FF044620B2BDE870882DE97048EB4606460D469E
:1441940030462946FFF72AFF044620B2BDE870882DE970488C
:1441A800EB4606460D4630462946FFF71DFF044620B2BDE87B
:1441BC0070882DE97048EB4606460D4630462946FFF710FF6F
:1441D000044620B2BDE870882DE97048EB4606460D4630460E
:1441E4002946FFF703FF044620B2BDE870882DE97048EB46A8
:1441F80006460D4630462946FFF7F6FE044620B2BDE870888C
:14420C002DE97048EB4606460D4630462946FFF7E9FE0446F4
:1442200020B2BDE870882DE97048EB4606460D463046294698
:14423400FFF7DCFE044620B2BDE870882DE97048EB460646A2
:144248000D4630462946FFF7CFFE044620B2BDE870882DE998
:14425C007048EB4606460D4630462946FFF7C2FE044620B20F
:14427000BDE870882DE97048EB4606460D4630462946FFF724
:14428400B5FE044620B2BDE870882DE9F048EB4607460E469A
:144298001546384631462A46FFF7B5FE044620B2BDE8F08870
:1442AC002DE97048EB4606460D4630462946FFF7D5FE044668
:1442C00020B2BDE870882DE97048EB46054601200D2100F0F2
:1442D4000FF906462C46651E002CF6DCB0B2BDE870882DE97A
:1442E8003048EB46054605202B21AAB200F0FEF8044620B2FF
:1442FC00BDE830882DE93048EB46054615202821AAB2012349
:1443100000F0F0F8044620B2BDE830882DE93048EB4605463E
:1443240015202821AAB2002300F0E2F8044620B2BDE8308845
:144338002DE93048EB46054615202921AAB2012300F0D4F8AC
:14434C00044620B2BDE830882DE93048EB460546152029215B
:14436000AAB2002300F0C6F8044620B2BDE830882DE9304815
:14437400EB46054615202A21AAB200F0B9F8044620B2BDE87B
:1443880030882DE9F048EB4682B007460E46154640F2552015
:14439C000A21BAB24FF4C873B4B20094019500F0A3F8044693
:1443B000A0B202B0BDE8F0882DE97048EB4606460D46152005
:1443C4004FF68071B2B2ABB200F092F80446BDE870882DE977
:1443D800F048EB4681B007460E46154695204FF47F41BAB217
:1443EC00B3B2009500F080F8044620B201B0BDE8F0882DE95B
:144400003048EB46054605204FF60171AAB200F071F80446D9
:1444140020B2BDE830882DE93048EB46054605204FF602717E
:14442800AAB200F063F8044620B2BDE830882DE93048EB46A1
:14443C00054605204FF60371AAB200F055F8044620B2BDE8E9
:1444500030882DE91048EB4601204FF6047100F049F80446AB
:14446400BDE810882DE97048EB4601204FF6817100F03EF88A
:1444780006463468034D2C607468034D2C600148BDE87088CE
:14448C0030080020340800202DE93048EB46054605204FF6F4
:1444A0000571AAB200F026F8044620B2BDE830882DE9104841
:1444B400EB4601204FF6827100F01AF80446BDE810882DE9CB
:1444C8001048EB4601204FF6837100F00FF80446BDE810887F
:1444DC002DE91048EB4601204FF6067100F004F8044620B248
:1444F000BDE810880FB42DE9F04FADF1180BDD465FF0000C24
:14450400CBF810C00BF1400CCBF80CC05FF0000CCBF804C057
:14451800F1E0DBF83C4004F0030CCBF800C0BCF1000F00F03D
:14452C00EE80DBF800C0BCF1010F17D1DBF80CC00CF1040C29
:14454000CBF80CC07FF00304DBF80CC05CF80430CBF8083040
:14455400DBF810C04FEA4C04724D2D68BBF808606653B9E066
:14456800DBF800C0BCF1020F3ED16D4C24682488B4F57F4F77
:14457C0038D1DBF810C0BCF1030F02D07FF00000C6E0DBF806
:144590000CC00CF1040CCBF80CC07FF00304DBF80CC05CF846
:1445A4000430CBF814305F4C2468B4F804805D4C246804F137
:1445B800060A5FF000090AE0DBF8145005F1010CCBF814C0CC
:1445CC002D780AF8015B09F101091FFA88F4A145F0DB524CF0
:1445E00020681FFA88F4A11D00F0D0F8044695E0DBF800C0E2
:1445F400BCF1020F45D1DBF80CC00CF1040CCBF80CC07FF035
:144608000304DBF80CC05CF80430CBF814302FE00124DBF862
:14461C0010C00CFA04F5414E3668DBF814C01CF80440240269
:14463000DBF814C09CF800703C43AC53DBF814C09CF80140D1
:1446440024B1DBF814C09CF8024004B944E0DBF814C00CF18B
:14465800020CCBF814C0DBF810C00CF1010CCBF810C0BCF1BC
:14466C00400F03DB092000F003FB31E0DBF814C09CF800406A
:14468000002CC9D12AE0DBF800C0BCF1030F25D1DBF80CC06F
:144694000CF1040CCBF80CC07FF00304DBF80CC05CF80430D9
:1446A800CBF80830DBF81040012504F1010CCBF810C0AC4039
:1446BC001A4D2D68BBF808606653DBF810C04FEA4C04164D8B
:1446D0002D68DBF808C04FEA2C466653DBF810C00CF1010C95
:1446E400CBF810C0DBF83C40A408CBF83C40DBF804C00CF161
:1446F800010CCBF804C0DBF804C0BCF1080FFFF608AF074CC0
:14470C002068DBF810C04FEA4C0100F039F8044606B0BDE822
:06472000F01F04B0604729
:14472800D40700202DE9F048EB4607460E46094C2760074C33
:12473C002660054800F04CFA0124024D2C70BDE8F08835
:14475000540A002061470008B8080020BC080020094800789A
:1447640070B108480078022803D103200549087006E004483F
:0E4778000078012802D1042001490870704722
:14478800540A00202DE9F04FEB4607460E463C787D782D02A0
:14479C0045EA0404A1467C78FF2C0CBF4FF001084FF0000872
:1447B000C24602242A4D2C703846314600F0CAF9274C2478FD
:1447C400032CFBD1264C27683846802100F0E0F98046B8F18E
:1447D800000F04DA062000F04DFA00203AE03C787D782D0271
:1447EC0045EA0406BAF1000F12D04FF680741FFA89F5A5422D
:1448000001DB3E4624E0B8F1040F21D1BC78FD782D0245EA8B
:14481400040446EA044619E0B8F1020F06D0B8F1040F03D0F6
:14482800022000F027FA0FE0B8F1040F0CD1BC78FD782D02E9
:14483C0045EA04042746741CBDB2A54202D0072000F016FAE5
:144850000124034D2C7000F007FA3046BDE8F08F540A00203A
:14486400D00700202DE9F04FEB46824689469046504600F0D0
:144878001DF8074677B90C4C2468322C03D1042000F0F8F97F
:14488C000CE0084C25686E1C2660054CED002F19A7F802A074
:1448A000C7F8049044463C70BDE8F08FC4080020C008002083
:1448B40030B50A4C002507E081B262888A4201D1204606E0A2
:1448C80008346D1C034909688D42F3DB004830BD0000000088
:1448DC00C0080020C40800202DE9F04BEB464C4CD4F800808E
:1448F0004A4C2068802100F04DF9064600F0B4F90124454D1F
:144904002C70002E73DD98F8004098F801502D0245EA04046E
:14491800A1461FFA89F4002C21D1042E6FDB98F8024098F812
:14492C0003502D0245EA04042746BFB2B7F5807F0BD040F228
:144940000114A7425FD1334C2468002C5BD0314C2468A047E3
:1449540057E02E4C2468002C53D02C4C2468A0474FE048461B
:14496800FFF7A4FF07462FB905201FFA89F100F081F944E027
:14497C0097F80090B9F1000F3FDBB9F1060F3CDC1F4C4FEABA
:1449900089052C59A7467C68A04734E0002406F8084008F1D1
:1449A40002007C68A0472CE0B8F802007C68A04727E0B8F8F2
:1449B8000200042438F804103C59A0471FE0B8F80200042428
:1449CC0038F80410B8F806203C59A04715E0B8F80200042472
:1449E00038F80410B8F80620B8F808303C59A04709E01EB985
:1449F400032000F041F904E0002E02DA062000F03BF9BDE885
:024A0800F08B31
:144A0C0084600008B8080020BC080020540A0020D007002071
:144A200040B542B2002A09DA42B202F00F02121F074B0E0103
:144A340006F0FF06D65405E042B2034B0E0106F0FF06D654EE
:024A480040BD6F
:144A4C0000E400E018ED00E000B50448024900F009FEFEE785
:024A600000BD97
:144A6400026100080661000800B50448024900F0FDFDFEE749
:024A780000BD7F
:144A7C00FE6000080661000800B50448024900F0F1FDFEE742
:024A900000BD67
:144A9400F46000080661000800B50448024900F0E5FDFEE740
:024AA80000BD4F
:144AAC00EB6000080661000800B50448024900F0D9FDFEE73D
:024AC00000BD37
:144AC400E06000080661000800B50448024900F0CDFDFEE73C
:024AD80000BD1F
:144ADC00D76000080661000800B50448024900F0C1FDFEE739
:024AF00000BD07
:144AF400D0600008066100082DE9F048EB4682B007460E46B5
:144B080015460948394632462B46064C24680094034C246838
:144B1C00019400F0A7FD02B0BDE8F08828ED00E02CED00E09F
:144B3000A060000800B506480721FCF7CAFE0A20FBF734FF34
:0A4B440002480721FCF7BDFE00BD8A
:144B5000300200202DE93048EB4605460C460B48FEF705F85E
:144B640009482146FDF7CCFF07482112FDF7C8FF05480649ED
:124B78002A462346FEF724F80248FEF70FF8BDE830889E
:144B8C0054040020000000002DE9F048EB4606460F460E4827
:144BA000FDF7E5FF0C48FDF7C7FF05460A48FDF7C3FF0402C2
:144BB40044EA0505BD4202DD7FF0000504E0054831462A464B
:144BC800FEF7D5F80248FDF7E9FF2846BDE8F08854040020EE
:144BDC002DE9F048EB4689B007461D481A4C214605252A46F4
:144BF0002B4600940726019602950394062404940595184DF9
:144C04000695079401240894FDF71EFF124808210122124B91
:144C1800FDF7A8FE0F48FDF796FF0C480921FCF75CFD0B48F1
:144C2C00094900220123002400940197FCF7BCFB044807216E
:144C40000022FCF765FDFFF775FF09B0BDE8F0883002002057
:144C540028020020580100205404002040420F002C02002032
:144C680000B50348FCF7D5FD10F4007FF9D100BD280200201F
:144C7C000FB42DE97048EB460BF11806DBF81440012C2ADBEF
:144C9000092C28DC1E4D641EA4006459A7461B4800F0E6FC67
:144CA4001FE0184800F0E2FC1BE0154800F0DEFC17E012485C
:144CB80000F0DAFC13E0361D7FF0030436590D48314600F01B
:144CCC00D1FC0AE0094800F0CDFC06E0064800F0C9FC02E048
:0E4CE000034800F0C5FCBDE8701804B0604742
:144CF00030610008576100087661000895610008C861000849
:144D0400F061000810620008316200080C6100082DE9F74F5C
:144D1800ADF1280B8CB05FF0000CCBF814C0B4E3DBF82CC032
:144D2C009CF80040252C0DD0DBF82CC09CF80000DBF828C063
:144D4000E047DBF814C00CF1010CCBF814C09AE35FF0000C18
:144D5400CBF808C06FF0000CCBF810C05FF0000C8BF819C00B
:144D68000BF11C0CCBF804C0DBF82CC00CF1010CCBF82CC014
:144D7C000026DBF82CC09CF80070202F25D0232F08D0202F7D
:144D900033DB2B2F16D02D2F0BD0302F24D02CE09BF819C0BF
:144DA4005FFA8CF444F001048BF8194024E09BF819C05FFA44
:144DB8008CF444F010048BF819401BE09BF819C05FFA8CF403
:144DCC0044F020048BF8194012E09BF819C05FFA8CF444F034
:144DE00080048BF8194009E09BF819C05FFA8CF444F04004B9
:144DF4008BF8194000E00126F4B234B9DBF82CC00CF1010C6C
:144E0800CBF82CC0B7E7DBF82CC09CF8000000F003FCA8B1AE
:144E1C00DBF82C0000F058FBCBF8080005E0DBF82CC00CF1D4
:144E3000010CCBF82CC0DBF82CC09CF8000000F0EFFB00285D
:144E4400F1D119E0DBF82CC09CF800402A2C13D1DBF830C00F
:144E58000CF1040CCBF830C07FF00304DBF830C05CF80430C5
:144E6C00CBF80830DBF82CC00CF1010CCBF82CC0DBF82CC000
:144E80009CF800402E2C3AD1DBF82CC00CF1010CCBF82CC06D
:144E94009CF8000000F0C2FBA8B1DBF82C0000F017FBCBF8AC
:144EA800100005E0DBF82CC00CF1010CCBF82CC0DBF82CC0CA
:144EBC009CF8000000F0AEFB0028F1D119E0DBF82CC09CF87F
:144ED00000402A2C13D1DBF830C00CF1040CCBF830C07FF062
:144EE4000304DBF830C05CF80430CBF81030DBF82CC00CF1A9
:144EF800010CCBF82CC0DBF82CC09CF800406C2C0ED1DBF80D
:144F0C002CC00CF1010CCBF82CC09BF819C05FFA8CF444F073
:144F200002048BF8194026E0DBF82CC09CF80040682C20D17D
:144F3400DBF82CC00CF1010CCBF82CC09CF80040682C0ED1AA
:144F4800DBF82CC00CF1010CCBF82CC09BF819C05FFA8CF498
:144F5C0044F004048BF8194007E09BF819C05FFA8CF444F0C9
:144F700008048BF81940DBF82CC09CF800308BF80F309BF86D
:144F84000FC05FFA8CF6582E21D0582E06DC452E00F04C825F
:144F9800472E00F04F820AE0632E08DB782E06DCDFF80045CD
:144FAC00A6F16305AD002C59A746DBF82CC09CF80000DBF8AD
:144FC00028C0E047DBF814C00CF1010CCBF814C059E29BF8B8
:144FD40019C05FFA8CF414F0100F09D07FF040049BF819C0FC
:144FE8005FFA8CF505EA04048BF819409BF819C05FFA8CF4C3
:144FFC0014F0020F0CD0DBF830C00CF1040CCBF830C07FF0BE
:145010000304DBF830C05CF8047030E0DBF830C00CF1040C1A
:14502400CBF830C07FF00304DBF830C05CF80430CBF8003011
:14503800DBF82CC09CF80040702C1CD09BF819C05FFA8CF404
:14504C0014F0040F06D0DBF800C00CF0FF0CCBF800C00EE058
:145060009BF819C05FFA8CF414F0080F07D04FF6FF74DBF87A
:1450740000C00CEA040CCBF800C00024A2460A26A046A146D6
:145088009BF80FC05FFA8CF4642C01D0692C44D19BF819C062
:14509C005FFA8CF414F0020F0AD0002F1BDA5FF02D0AFC434F
:1450B000671C5FFA88F4641CA04612E0DBF800C0BCF1000FED
:1450C4000DDA5FF02D0ADBF800C06FEA0C0404F1010CCBF8AA
:1450D80000C05FFA88F4641CA0465FFA8AF4002C3CD19BF826
:1450EC0019C05FFA8CF414F0200F06D05FF02B0A5FFA88F49C
:14510000641CA0462EE09BF819C05FFA8CF414F0800F27D058
:145114005FF0200A5FFA88F4641CA04620E09BF80FC05FFA18
:145128008CF46F2C0AD108269BF819C05FFA8CF414F0010FF6
:14513C0012D05FF001090FE09BF80FC05FFA8CF4752C09D080
:1451500010269BF819C05FFA8CF414F0010F01D05FF0020991
:145164009BF819C05FFA8CF414F0020F06D0F2B20BF11C014A
:14517800384600F003FA06E0F2B20BF11C01DBF8000000F052
:14518C0037FA0BF11C0000F01FFD06465FFA89F45FFA88F5C2
:1451A0002C19F5B26419A0465FFA88F4DBF808C0A44501DA78
:1451B400002605E05FFA88F4DBF808C0ACEB04069BF819C05F
:1451C8005FFA8CF414F0500F0BD120223146DBF8280000F017
:1451DC00D3FCDBF814C01CEB000CCBF814C05FFA8AF44CB1CB
:1451F0005046DBF828C0E047DBF814C00CF1010CCBF814C0EB
:145204005FFA89F4002C1ADD3020DBF828C0E047DBF814C0C4
:145218000CF1010CCBF814C09BF80FC05FFA8CF46F2C0AD031
:14522C009BF80F00DBF828C0E047DBF814C00CF1010CCBF876
:1452400014C09BF819C05FFA8CF414F0400F0BD0302231464A
:14525400DBF8280000F094FCDBF814C01CEB000CCBF814C07A
:145268000BF11C0CCBF804C09BF80FC05FFA8CF4582C24D0D4
:14527C0009E03846DBF828C0E047DBF814C00CF1010CCBF861
:1452900014C0DBF8044004F1010CCBF804C024782746E4B2F7
:1452A400002CEAD118E0F8B200F0D0F904462746DBF828C042
:1452B800E047DBF814C00CF1010CCBF814C0DBF8044004F167
:1452CC00010CCBF804C024782746E4B2002CE6D19BF819C04C
:1452E0005FFA8CF404F05004102C40F0CC8020223146DBF855
:1452F400280000F045FCDBF814C01CEB000CCBF814C0BEE05E
:14530800DBF830C00CF1040CCBF830C07FF00304DBF830C0D5
:14531C005CF804408BF81A40DBF808C0BCF1010F09DDDBF8F7
:1453300008C0CBF810C000248BF81B400BF11A081CE09BF85F
:145344001A00DBF828C0E047DBF814C00CF1010CCBF814C011
:1453580095E0DBF830C00CF1040CCBF830C07FF00304DBF800
:14536C0030C05CF80480B8F1000F01D1DFF83481DBF810C0AC
:14538000BCF1000F04DA404600F024FCCBF81000DBF808C07B
:14539400DBF810309C4501DA002605E0DBF808C0DBF810307D
:1453A800ACEB03069BF819C05FFA8CF414F0100F19D12022BD
:1453BC003146DBF8280000F0DFFBDBF814C01CEB000CCBF824
:1453D00014C00CE098F80000DBF828C0E047DBF814C00CF1F3
:1453E400010CCBF814C008F1010898F800403CB1DBF810402F
:1453F800A4F1010CCBF810C0002CE7D19BF819C05FFA8CF443
:14540C0014F0100F39D020223146DBF8280000F0B3FBDBF83B
:1454200014C01CEB000CCBF814C02CE0012606E0022604E0D5
:14543400002602E0032600E00426DBF830C00CF1040CCBF896
:1454480030C07FF00304DBF830C05CF80480DBF810C0CDF8E7
:14545C0004C0DBF808C0CDF800C09BF819C05FFA8CF342468C
:145470003146DBF8280000F067F9DBF814C01CEB000CCBF8E9
:1454840014C0DBF82CC00CF1010CCBF82CC0DBF82CC09CF875
:125498000040002C7FF444ACDBF814000FB0BDE8F08F69
:1454AC00606200084C62000890FBF1F201FB02F3A0EB03007F
:0254C000F746AD
:0E54C400B0FBF1F201FB02F3A0EB0300704716
:1454D4002DE9F049EB46074600E07F1C387800F0ADF800280F
:1454E800F9D15FF000083C782D2C03D10124A0467F1C03E025
:1454FC003C782B2C00D17F1C002606E00A25754317F8014BD7
:145510002C19A4F13006387800F082F80028F3D1B8F1000FB9
:0A55240014BF70423046BDE8F08964
:145530002DE9FF4FEB46074692469946DBF804605146384682
:14554400FFF7BEFF8046B8F1090F04DC08F1300506F8015BB1
:1455580003E008F1570506F8015BB7FBFAF74C46A4F10109D9
:14556C00002CE7DC002FE5D1002506F80159DBF8040004B04F
:14558000BDE8F08F2DE9F048EB4605460E46174600233A46D5
:1455940031462846FFF7CAFF044600F023FB0446BDE8F088A0
:1455A8002DE9FF4FEB46074692469946DBF80460514638460A
:1455BC00FFF782FF8046B8F1090F04DC08F1300506F8015B75
:1455D00003E008F1570506F8015BB7FBFAF74C46A4F1010961
:1455E400002CE7DC002FE5D1002506F80159DBF8040004B0D7
:1455F800BDE8F08F2DE9F048EB4605460E46174600233A465D
:14560C0031462846FFF7CAFF044600F0E7FA0446BDE8F08864
:0A5620000249415C01F004007047EC
:0E562C00B96200080249415C01F002007047BB
:0E563C00B96200080249415C01F0100070479D
:14564C00B96200082DE93048EB4605462846FFF7E9FF20B100
:14566000A5F1610404F1410000E02846BDE830880FB42DE981
:145674001048EB460BF110042246DBF80C100448FFF746FBAF
:0A5688000446BDE8101804B06047A6
:14569400E50600082DE9F048EB4607460E467FF00104A64293
:1456A80001D10A4D05E0B6F1FF3F01D1084D00E0084D002679
:1456BC0003E02878B847761C6D1C2C78002CF8D13046BDE889
:0256D000F08860
:1456D400BC630008D0630008E66300082DE9F048EB469BF8FD
:1456E8001C60F4B20D78AC4227DA245C352C24DB3746FCB20D
:1456FC0030252554FCB29CB9312404701468641C1460F4B2EA
:14571000641C26469BF818C05FFA8CF48CB91468002C0EDB7F
:145724001468641C1C600AE0FCB2641E2746FCB224182578EB
:145738006D1C2570ECB2392CDBDC0E70BDE8F0882DE9FF4F86
:14574C00ADF1280B8CB088461E46DBF85C70DBF860905FF059
:14576000000CCBF80CC08BF801C08BF803808BF802609BF8D8
:1457740003C05FFA8CF4022C05D101248BF803408BF80140D2
:145788000DE09BF803C05FFA8CF4042C07D15FF0030C8BF808
:14579C0003C05FF0010C8BF801C0002F08DA7F429BF802C06F
:1457B0005FFA8CF444F010048BF802400BF1300400940A230E
:1457C4000BF120020BF110010BF1140000F01AFA064674B220
:1457D80034B171B2DBF82800FFF75AFF0446CAE1B9F1000FBD
:1457EC0001DA5FF006099BF803C05FFA8CF4032C1CD1B9F17B
:14580000000F0CBF01264E46DBF820407FF00305A5420BDC87
:14581400B44209DA5FF0000C8BF803C0DBF82040641CA6EBC2
:14582800040905E05FF0010C8BF803C0A6F101099BF803C0E1
:14583C005FFA8CF4012C03D0DBF82040002C03DA0124CBF85B
:14585000244004E0DBF82040641CCBF824409BF803C05FFA73
:145864008CF4012C02D109F1020618E0DBF82040002C05DB77
:14587800DBF82040A41C04EB09060EE0DBF820406442661EE0
:14588C0009F10104B442B2BF4FF0000809F10104A4EB0608BF
:1458A0004646082EBABF3446E6B2082634468BF81F40641E9B
:1458B40001949BF803C0CDF800C00BF124030BF120020BF133
:1458C8001F010BF11400FFF707FFDBF8104034B99BF802C03B
:1458DC005FFA8CF414F0A00F01D0012600E000269BF803C0D8
:1458F0005FFA8CF4012C03D0DBF82040002C04DA09F1010C87
:14590400CBF804C006E0DBF82040641C04EB090CCBF804C0E4
:145918009BF803C05FFA8CF4012C0CBF4FF004084FF00008C2
:14592C00B9F1000F06DC9BF802C05FFA8CF414F0010F02D0B8
:145940005FF0010901E05FF000098BF80B90F4B2DBF804C066
:1459540004EB0C049BF80BC05FFA8CF564195FFA88F504EBC6
:1459680005094F45B4BF4FF00008A7EB09089BF802C05FFA7E
:14597C008CF414F0500F0BD120224146DBF8280000F0FAF8B2
:14599000DBF80CC01CEB000CCBF80CC0F4B2002C1ADDDBF826
:1459A400104014B15FF02D0A0AE09BF802C05FFA8CF414F038
:1459B800200F14BF4FF02B0A4FF0200A5046DBF828C0E04784
:1459CC00DBF80CC00CF1010CCBF80CC09BF802C05FFA8CF461
:1459E00014F0400F0BD030224146DBF8280000F0C9F8DBF82D
:1459F4000CC01CEB000CCBF80CC09BF803C05FFA8CF4012CD5
:145A080003D0DBF82040002C01DB002603E0DBF8204064429A
:145A1C0026465FF0000900273CE0F4B2002C05DDF4B2641E93
:145A300026465FF0300A10E09BF81F405FFA89F5A54208DAEB
:145A44005FFA89F4651CA9460BF1140514F805A001E05FF012
:145A5800300A5046DBF828C0E047DBF80CC00CF1010CCBF81C
:145A6C000CC0DBF82440641EFDB2A5420FD19BF80BC05FFA74
:145A80008CF4002C09DD2E20DBF828C0E047DBF80CC00CF1B4
:145A9400010CCBF80CC0FCB2641C2746FCB2DBF804C06445D9
:145AA800BDDB9BF803C05FFA8CF4012C4DD19BF801C05FFA2B
:145ABC008CF40CB1452700E06527BA465046DBF828C0E04749
:145AD000DBF80CC00CF1010CCBF80CC0DBF82040002C02DB4E
:145AE4005FF02B0A06E05FF02D0ADBF820406442CBF82040C2
:145AF8005046DBF828C0E047DBF80CC00CF1010CCBF80CC0EA
:145B0C000A24DBF8205095FBF4F43034A2465046DBF828C0FF
:145B2000E047DBF80CC00CF1010CCBF80CC00A21DBF82000F4
:145B3400FFF7BEFC00F13004A2465046DBF828C0E047DBF855
:145B48000CC00CF1010CCBF80CC09BF802C05FFA8CF404F0C2
:145B5C005004102C0BD120224146DBF8280000F00BF8DBF83F
:145B70000CC01CEB000CCBF80CC0DBF80C0010B0BDE8F08FF0
:145B84002DE9F04BEB4680460F469146002602E04846C047FC
:125B9800761CFCB2651E2F46002CF7DC3046BDE8F08B2E
:145BAC0070B501290ED904460A1802F1FF3507E026782A78F5
:125BC000227032462A70641C05F1FF35AC42F5D370BDA2
:145BD40010B5002400E0641C10F8011B0029FAD1204610BD29
:145BE8002DE93048EB4605462846FFF7EFFF0446214628462E
:0A5BFC00FFF7D6FF0446BDE830882D
:145C08002DE9FF4FADF1040BDD4681460E46DBF838C0DCF89A
:145C1C000030CBF80030DBF800C04FEADC743460DBF800C00E
:145C30004FEADC5404F0FF085F4CDBF800C00CEA040CCBF8F5
:145C440000C0B8F1010F02D3B8F1FE0F06D95FF0000CCBF84B
:145C580000C05FF0000807E0DBF800C04CF4000CCBF800C0D8
:145C6C00A8F17F084E460027DBF800C0BCF1000F00F0888002
:145C8000DBF800A0B8F1200F02DB7FF001008FE07FF0160480
:145C9400A04502DA7FF0000088E0B8F1170F0ADBA8F11704FC
:145CA800DBF800C00CFA04FCCBF800C05FF0000A24E0B8F1C6
:145CBC00000F12DB08F10104DBF800C00CFA04F47FF07F4516
:145CD00004EA050AC8F11704DBF800C02CFA04FCCBF800C0B3
:145CE4000EE07FF07F44DBF800C00CEA040408F101056D424D
:145CF80024FA05FA5FF0000CCBF800C0DBF800C0BCF1000F4E
:145D0C000BD00A224946DBF80000FFF735FC01E07F1C761CE5
:145D20003478002CFAD1DBF810C0ACEB0704CBF81040002C48
:145D340003DA5FF0000CCBF810C0BAF1000F20D01AE07FF07D
:145D48007F440AEA040A4FEA4A0A0AEB8A0A4FEA1A68B8F108
:145D5C00000F03D14E4501D17F1E09E008F1300506F8015BDD
:145D7000DBF810C0ACF1010CCBF810C0DBF810C0BCF1000FE0
:145D8400DFDC7F1E02E0302506F8015BDBF81040A4F1010C5D
:145D9800CBF810C0002CF4DC002506F8015BDBF80CC0CCF886
:0A5DAC000070002005B0BDE8F08F84
:145DB800FFFF7F000D0A496D61676543726166742053544D5C
:145DCC003332463431312053542D4E75636C656F2E2E2E207E
:145DE00053797374656D2072756E6E696E672061742025646B
:145DF4004D687A0A00536D6172742E494F2056657273696FFD
:145E08006E2025730A00424C4520646973636F6E6E65637439
:145E1C0065640A00424C4520636F6E6E65637465640A0031BE
:145E30003A30300031383A303000205765656B656E6400538B
:145E4400616D6520617320275765656B6461797327004F46E3
:145E58004620617400303A3030004F4E2061740031373A30CD
:145E6C003000205765656B64617973004175746F204F6E2FF0
:145E80004F6666205363686564756C6500506F776572005346
:145E94006D6172742057616C6C20506C756700657870616EC2
:145EA8006461626C65206C69737420656E74727920256420F7
:145EBC0073656C65637465640A003320706F732062757474FB
:145ED0006F6E2025642073656C65637465640A0074696D6516
:145EE400342073656C65637465642025643A25640A007469BA
:145EF8006D65332073656C65637465642025643A25640A00B2
:145F0C0074696D65322073656C65637465642025643A2564CB
:145F20000A0074696D65312073656C65637465642025643A37
:145F340025640A006E756D6265722073656C65637465643A9A
:145F48002025640A0063616C656E6461722073656C656374B8
:145F5C0065643A2025730A0070617373776F726420656E7492
:145F7000657265643A5B25735D0A006E756D62657220656E6D
:145F840074657265643A5B25735D0A00746578743220656E77
:145F980074657265643A5B25735D0A00726164696F20627547
:145FAC0074746F6E2025642073656C65637465640A00636835
:145FC00065636B626F78657320286269746D61736B292030CD
:145FD4007825782073656C65637465640A006D656E752065F7
:145FE8006E7472792025642063616C6C65640A0074657874DB
:145FFC003120656E74657265643A5B25735D0A00536C696439
:1460100065723120676574732025640A004F4B3120676574C3
:14602400732025640A00427574746F6E32206765747320257C
:14603800640A00427574746F6E3120676574732025640A00B3
:14604C004A534150495F4750494F3A3A436C656172416C74BF
:1460600046756E6374696F6E206E6F7420696D706C656D656C
:056074006E746564007C
:05607C00312E3032005E
